{
  "contractName": "ERC20Tornado",
  "abi": [
    {
      "inputs": [
        {
          "internalType": "contract IVerifier",
          "name": "_verifier",
          "type": "address"
        },
        {
          "internalType": "uint256",
          "name": "_denomination",
          "type": "uint256"
        },
        {
          "internalType": "uint32",
          "name": "_merkleTreeHeight",
          "type": "uint32"
        },
        {
          "internalType": "address",
          "name": "_operator",
          "type": "address"
        },
        {
          "internalType": "address",
          "name": "_token",
          "type": "address"
        },
        {
          "internalType": "uint256",
          "name": "_fee",
          "type": "uint256"
        }
      ],
      "payable": false,
      "stateMutability": "nonpayable",
      "type": "constructor"
    },
    {
      "anonymous": false,
      "inputs": [
        {
          "indexed": true,
          "internalType": "bytes32",
          "name": "commitment",
          "type": "bytes32"
        },
        {
          "indexed": false,
          "internalType": "uint32",
          "name": "leafIndex",
          "type": "uint32"
        },
        {
          "indexed": false,
          "internalType": "uint256",
          "name": "timestamp",
          "type": "uint256"
        }
      ],
      "name": "Deposit",
      "type": "event"
    },
    {
      "constant": true,
      "inputs": [],
      "name": "FIELD_SIZE",
      "outputs": [
        {
          "internalType": "uint256",
          "name": "",
          "type": "uint256"
        }
      ],
      "payable": false,
      "stateMutability": "view",
      "type": "function"
    },
    {
      "constant": true,
      "inputs": [],
      "name": "ROOT_HISTORY_SIZE",
      "outputs": [
        {
          "internalType": "uint32",
          "name": "",
          "type": "uint32"
        }
      ],
      "payable": false,
      "stateMutability": "view",
      "type": "function"
    },
    {
      "constant": true,
      "inputs": [],
      "name": "ZERO_VALUE",
      "outputs": [
        {
          "internalType": "uint256",
          "name": "",
          "type": "uint256"
        }
      ],
      "payable": false,
      "stateMutability": "view",
      "type": "function"
    },
    {
      "constant": false,
      "inputs": [
        {
          "internalType": "address",
          "name": "_newOperator",
          "type": "address"
        }
      ],
      "name": "changeOperator",
      "outputs": [],
      "payable": false,
      "stateMutability": "nonpayable",
      "type": "function"
    },
    {
      "constant": false,
      "inputs": [
        {
          "internalType": "bytes",
          "name": "_proof",
          "type": "bytes"
        },
        {
          "internalType": "bytes32",
          "name": "_root",
          "type": "bytes32"
        },
        {
          "internalType": "bytes32",
          "name": "_nullifierHash",
          "type": "bytes32"
        },
        {
          "internalType": "bytes20",
          "name": "_hash",
          "type": "bytes20"
        },
        {
          "internalType": "address payable",
          "name": "_relayer",
          "type": "address"
        },
        {
          "internalType": "uint256",
          "name": "_fee",
          "type": "uint256"
        },
        {
          "internalType": "uint256",
          "name": "_refund",
          "type": "uint256"
        }
      ],
      "name": "commit",
      "outputs": [],
      "payable": true,
      "stateMutability": "payable",
      "type": "function"
    },
    {
      "constant": true,
      "inputs": [
        {
          "internalType": "bytes32",
          "name": "",
          "type": "bytes32"
        }
      ],
      "name": "commitments",
      "outputs": [
        {
          "internalType": "bool",
          "name": "",
          "type": "bool"
        }
      ],
      "payable": false,
      "stateMutability": "view",
      "type": "function"
    },
    {
      "constant": true,
      "inputs": [],
      "name": "currentRootIndex",
      "outputs": [
        {
          "internalType": "uint32",
          "name": "",
          "type": "uint32"
        }
      ],
      "payable": false,
      "stateMutability": "view",
      "type": "function"
    },
    {
      "constant": true,
      "inputs": [],
      "name": "denomination",
      "outputs": [
        {
          "internalType": "uint256",
          "name": "",
          "type": "uint256"
        }
      ],
      "payable": false,
      "stateMutability": "view",
      "type": "function"
    },
    {
      "constant": false,
      "inputs": [
        {
          "internalType": "bytes32",
          "name": "_commitment",
          "type": "bytes32"
        }
      ],
      "name": "deposit",
      "outputs": [],
      "payable": true,
      "stateMutability": "payable",
      "type": "function"
    },
    {
      "constant": true,
      "inputs": [],
      "name": "fee",
      "outputs": [
        {
          "internalType": "uint256",
          "name": "",
          "type": "uint256"
        }
      ],
      "payable": false,
      "stateMutability": "view",
      "type": "function"
    },
    {
      "constant": true,
      "inputs": [
        {
          "internalType": "uint256",
          "name": "",
          "type": "uint256"
        }
      ],
      "name": "filledSubtrees",
      "outputs": [
        {
          "internalType": "bytes32",
          "name": "",
          "type": "bytes32"
        }
      ],
      "payable": false,
      "stateMutability": "view",
      "type": "function"
    },
    {
      "constant": true,
      "inputs": [],
      "name": "getLastRoot",
      "outputs": [
        {
          "internalType": "bytes32",
          "name": "",
          "type": "bytes32"
        }
      ],
      "payable": false,
      "stateMutability": "view",
      "type": "function"
    },
    {
      "constant": true,
      "inputs": [
        {
          "internalType": "bytes32",
          "name": "_left",
          "type": "bytes32"
        },
        {
          "internalType": "bytes32",
          "name": "_right",
          "type": "bytes32"
        }
      ],
      "name": "hashLeftRight",
      "outputs": [
        {
          "internalType": "bytes32",
          "name": "",
          "type": "bytes32"
        }
      ],
      "payable": false,
      "stateMutability": "pure",
      "type": "function"
    },
    {
      "constant": true,
      "inputs": [
        {
          "internalType": "bytes32",
          "name": "_root",
          "type": "bytes32"
        }
      ],
      "name": "isKnownRoot",
      "outputs": [
        {
          "internalType": "bool",
          "name": "",
          "type": "bool"
        }
      ],
      "payable": false,
      "stateMutability": "view",
      "type": "function"
    },
    {
      "constant": true,
      "inputs": [
        {
          "internalType": "bytes32",
          "name": "_nullifierHash",
          "type": "bytes32"
        }
      ],
      "name": "isSpent",
      "outputs": [
        {
          "internalType": "bool",
          "name": "",
          "type": "bool"
        }
      ],
      "payable": false,
      "stateMutability": "view",
      "type": "function"
    },
    {
      "constant": true,
      "inputs": [
        {
          "internalType": "bytes32[]",
          "name": "_nullifierHashes",
          "type": "bytes32[]"
        }
      ],
      "name": "isSpentArray",
      "outputs": [
        {
          "internalType": "bool[]",
          "name": "spent",
          "type": "bool[]"
        }
      ],
      "payable": false,
      "stateMutability": "view",
      "type": "function"
    },
    {
      "constant": true,
      "inputs": [],
      "name": "levels",
      "outputs": [
        {
          "internalType": "uint32",
          "name": "",
          "type": "uint32"
        }
      ],
      "payable": false,
      "stateMutability": "view",
      "type": "function"
    },
    {
      "constant": true,
      "inputs": [],
      "name": "nextIndex",
      "outputs": [
        {
          "internalType": "uint32",
          "name": "",
          "type": "uint32"
        }
      ],
      "payable": false,
      "stateMutability": "view",
      "type": "function"
    },
    {
      "constant": true,
      "inputs": [
        {
          "internalType": "bytes32",
          "name": "",
          "type": "bytes32"
        }
      ],
      "name": "nullifierHashes",
      "outputs": [
        {
          "internalType": "bool",
          "name": "",
          "type": "bool"
        }
      ],
      "payable": false,
      "stateMutability": "view",
      "type": "function"
    },
    {
      "constant": true,
      "inputs": [],
      "name": "operator",
      "outputs": [
        {
          "internalType": "address",
          "name": "",
          "type": "address"
        }
      ],
      "payable": false,
      "stateMutability": "view",
      "type": "function"
    },
    {
      "constant": true,
      "inputs": [
        {
          "internalType": "uint256",
          "name": "",
          "type": "uint256"
        }
      ],
      "name": "roots",
      "outputs": [
        {
          "internalType": "bytes32",
          "name": "",
          "type": "bytes32"
        }
      ],
      "payable": false,
      "stateMutability": "view",
      "type": "function"
    },
    {
      "constant": true,
      "inputs": [],
      "name": "token",
      "outputs": [
        {
          "internalType": "address",
          "name": "",
          "type": "address"
        }
      ],
      "payable": false,
      "stateMutability": "view",
      "type": "function"
    },
    {
      "constant": false,
      "inputs": [
        {
          "internalType": "address",
          "name": "_newVerifier",
          "type": "address"
        }
      ],
      "name": "updateVerifier",
      "outputs": [],
      "payable": false,
      "stateMutability": "nonpayable",
      "type": "function"
    },
    {
      "constant": true,
      "inputs": [],
      "name": "verifier",
      "outputs": [
        {
          "internalType": "contract IVerifier",
          "name": "",
          "type": "address"
        }
      ],
      "payable": false,
      "stateMutability": "view",
      "type": "function"
    },
    {
      "constant": false,
      "inputs": [
        {
          "internalType": "address payable",
          "name": "_recipient",
          "type": "address"
        },
        {
          "internalType": "bytes",
          "name": "_randomness",
          "type": "bytes"
        },
        {
          "internalType": "address payable",
          "name": "_relayer",
          "type": "address"
        },
        {
          "internalType": "uint256",
          "name": "_fee",
          "type": "uint256"
        },
        {
          "internalType": "uint256",
          "name": "_refund",
          "type": "uint256"
        }
      ],
      "name": "vote",
      "outputs": [],
      "payable": true,
      "stateMutability": "payable",
      "type": "function"
    },
    {
      "constant": true,
      "inputs": [
        {
          "internalType": "uint256",
          "name": "",
          "type": "uint256"
        }
      ],
      "name": "zeros",
      "outputs": [
        {
          "internalType": "bytes32",
          "name": "",
          "type": "bytes32"
        }
      ],
      "payable": false,
      "stateMutability": "view",
      "type": "function"
    }
  ],
  "bytecode": "0x6080604052600380546001600160401b03191690553480156200002157600080fd5b5060405162001e6738038062001e67833981810160405260c08110156200004757600080fd5b508051602082015160408301516060840151608085015160a0909501519394929391929091858585858163ffffffff8116620000b55760405162461bcd60e51b815260040180806020018281038252602781526020018062001dde6027913960400191505060405180910390fd5b60208163ffffffff1610620000fc5760405162461bcd60e51b815260040180806020018281038252602281526020018062001e256022913960400191505060405180910390fd5b6000805463ffffffff191663ffffffff83161781556002805460018181019092557f2fe54c60d3acabf3343a35b6eba15db4821b340f76e741e2249685ed4899af6c60008051602062001d9d833981519152909101819055815480830183559282905260008051602062001e478339815191529092018290555b60005463ffffffff9081169082161015620001ea57620001a082806001600160e01b036200029e16565b60028054600181810190925560008051602062001d9d8339815191520182905580548082018255600082905260008051602062001e47833981519152018290559092500162000176565b506200020081806001600160e01b036200029e16565b6004555050600160685582620002485760405162461bcd60e51b815260040180806020018281038252602581526020018062001d786025913960400191505060405180910390fd5b606c80546001600160a01b039586166001600160a01b031991821617909155606d80549286169282169290921790915560699290925550606e805494909216931692909217909155606f55506200048b92505050565b600060008051602062001e05833981519152831062000304576040805162461bcd60e51b815260206004820181905260248201527f5f6c6566742073686f756c6420626520696e7369646520746865206669656c64604482015290519081900360640190fd5b60008051602062001e058339815191528210620003535760405162461bcd60e51b815260040180806020018281038252602181526020018062001dbd6021913960400191505060405180910390fd5b6040805163f47d33b560e01b81526004810185905260006024820181905282518693919273__Hasher________________________________9263f47d33b592604480840193829003018186803b158015620003ae57600080fd5b505af4158015620003c3573d6000803e3d6000fd5b505050506040513d6040811015620003da57600080fd5b508051602090910151909250905060008051602062001e05833981519152848308915073__Hasher________________________________63f47d33b583836040518363ffffffff1660e01b81526004018083815260200182815260200192505050604080518083038186803b1580156200045457600080fd5b505af415801562000469573d6000803e3d6000fd5b505050506040513d60408110156200048057600080fd5b505195945050505050565b6118dd806200049b6000396000f3fe6080604052600436106101815760003560e01c8063b20a3148116100d1578063ddca3f431161008a578063ec73295911610064578063ec73295914610651578063f178e47c14610666578063fc0c546a14610690578063fc7e9c6f146106a557610181565b8063ddca3f43146105e8578063e5285dcc146105fd578063e82955881461062757610181565b8063b20a314814610440578063b214faa5146104e4578063b9820cea14610501578063ba70f75714610594578063c2b40ae4146105a9578063cd87a3b4146105d357610181565b8063570ca7351161013e5780638bca6d16116101185780638bca6d161461031857806390eeb02b1461032d57806397fc007c146103425780639fa12d0b1461037557610181565b8063570ca735146102af5780636d9833e3146102c4578063839df945146102ee57610181565b806306394c9b1461018657806317cc915c146101bb5780632b7ac3f3146101f957806338bf282e1461022a578063414a37ba1461026c5780634ecf518b14610281575b600080fd5b34801561019257600080fd5b506101b9600480360360208110156101a957600080fd5b50356001600160a01b03166106ba565b005b3480156101c757600080fd5b506101e5600480360360208110156101de57600080fd5b5035610725565b604080519115158252519081900360200190f35b34801561020557600080fd5b5061020e61073a565b604080516001600160a01b039092168252519081900360200190f35b34801561023657600080fd5b5061025a6004803603604081101561024d57600080fd5b5080359060200135610749565b60408051918252519081900360200190f35b34801561027857600080fd5b5061025a61092a565b34801561028d57600080fd5b5061029661093c565b6040805163ffffffff9092168252519081900360200190f35b3480156102bb57600080fd5b5061020e610948565b3480156102d057600080fd5b506101e5600480360360208110156102e757600080fd5b5035610957565b3480156102fa57600080fd5b506101e56004803603602081101561031157600080fd5b50356109ca565b34801561032457600080fd5b5061025a6109df565b34801561033957600080fd5b506102966109e5565b34801561034e57600080fd5b506101b96004803603602081101561036557600080fd5b50356001600160a01b03166109f1565b34801561038157600080fd5b506103f06004803603602081101561039857600080fd5b810190602081018135600160201b8111156103b257600080fd5b8201836020820111156103c457600080fd5b803590602001918460208302840111600160201b831117156103e557600080fd5b509092509050610a5c565b60408051602080825283518183015283519192839290830191858101910280838360005b8381101561042c578181015183820152602001610414565b505050509050019250505060405180910390f35b6101b9600480360360e081101561045657600080fd5b810190602081018135600160201b81111561047057600080fd5b82018360208201111561048257600080fd5b803590602001918460018302840111600160201b831117156104a357600080fd5b91935091508035906020810135906bffffffffffffffffffffffff19604082013516906001600160a01b036060820135169060808101359060a00135610ae4565b6101b9600480360360208110156104fa57600080fd5b5035610d84565b6101b9600480360360a081101561051757600080fd5b6001600160a01b038235169190810190604081016020820135600160201b81111561054157600080fd5b82018360208201111561055357600080fd5b803590602001918460018302840111600160201b8311171561057457600080fd5b91935091506001600160a01b038135169060208101359060400135610ea5565b3480156105a057600080fd5b5061025a610f54565b3480156105b557600080fd5b5061025a600480360360208110156105cc57600080fd5b5035610f74565b3480156105df57600080fd5b50610296610f88565b3480156105f457600080fd5b5061025a610f8d565b34801561060957600080fd5b506101e56004803603602081101561062057600080fd5b5035610f93565b34801561063357600080fd5b5061025a6004803603602081101561064a57600080fd5b5035610fa8565b34801561065d57600080fd5b5061025a610fc6565b34801561067257600080fd5b5061025a6004803603602081101561068957600080fd5b5035610fea565b34801561069c57600080fd5b5061020e610ff7565b3480156106b157600080fd5b50610296611006565b606d546001600160a01b031633146107035760405162461bcd60e51b81526004018080602001828103825260258152602001806118846025913960400191505060405180910390fd5b606d80546001600160a01b0319166001600160a01b0392909216919091179055565b606a6020526000908152604090205460ff1681565b606c546001600160a01b031681565b60006000805160206117e283398151915283106107ad576040805162461bcd60e51b815260206004820181905260248201527f5f6c6566742073686f756c6420626520696e7369646520746865206669656c64604482015290519081900360640190fd5b6000805160206117e283398151915282106107f95760405162461bcd60e51b81526004018080602001828103825260218152602001806117926021913960400191505060405180910390fd5b6040805163f47d33b560e01b81526004810185905260006024820181905282518693919273__Hasher________________________________9263f47d33b592604480840193829003018186803b15801561085357600080fd5b505af4158015610867573d6000803e3d6000fd5b505050506040513d604081101561087d57600080fd5b50805160209091015190925090506000805160206117e2833981519152848308915073__Hasher________________________________63f47d33b583836040518363ffffffff1660e01b81526004018083815260200182815260200192505050604080518083038186803b1580156108f557600080fd5b505af4158015610909573d6000803e3d6000fd5b505050506040513d604081101561091f57600080fd5b505195945050505050565b6000805160206117e283398151915281565b60005463ffffffff1681565b606d546001600160a01b031681565b600081610966575060006109c5565b60035463ffffffff165b60048163ffffffff166064811061098357fe5b01548314156109965760019150506109c5565b63ffffffff81166109a5575060645b6003546000199091019063ffffffff808316911614156109705760009150505b919050565b606b6020526000908152604090205460ff1681565b60695481565b60035463ffffffff1681565b606d546001600160a01b03163314610a3a5760405162461bcd60e51b81526004018080602001828103825260258152602001806118846025913960400191505060405180910390fd5b606c80546001600160a01b0319166001600160a01b0392909216919091179055565b604080518281526020808402820101909152606090828015610a88578160200160208202803883390190505b50905060005b82811015610add57610ab1848483818110610aa557fe5b90506020020135610f93565b15610ad5576001828281518110610ac457fe5b911515602092830291909101909101525b600101610a8e565b5092915050565b60688054600101908190556000868152606a602052604090205460ff1615610b53576040805162461bcd60e51b815260206004820152601f60248201527f546865206e6f746520686173206265656e20616c7265616479207370656e7400604482015290519081900360640190fd5b610b5c87610957565b610bad576040805162461bcd60e51b815260206004820152601c60248201527f43616e6e6f742066696e6420796f7572206d65726b6c6520726f6f7400000000604482015290519081900360640190fd5b606c546040805160c080820183528a8252602082018a9052606089811c838501526001600160a01b03898116918401919091526080830188905260a08301879052925163695ef6f960e01b8152929093169263695ef6f9928d928d9290916004810191829160240190849080838360005b83811015610c36578181015183820152602001610c1e565b505050509050018281038252858582818152602001925080828437600081840152601f19601f820116905080830192505050945050505050602060405180830381600087803b158015610c8857600080fd5b505af1158015610c9c573d6000803e3d6000fd5b505050506040513d6020811015610cb257600080fd5b5051610cfe576040805162461bcd60e51b815260206004820152601660248201527524b73b30b634b2103bb4ba34323930bb90383937b7b360511b604482015290519081900360640190fd5b6000868152606a60205260409020805460ff19166001179055610d2385858585611019565b6068548114610d79576040805162461bcd60e51b815260206004820152601f60248201527f5265656e7472616e637947756172643a207265656e7472616e742063616c6c00604482015290519081900360640190fd5b505050505050505050565b60688054600101908190556000828152606b602052604090205460ff1615610ddd5760405162461bcd60e51b81526004018080602001828103825260218152602001806118026021913960400191505060405180910390fd5b6000610de8836111cf565b6000848152606b60205260409020805460ff191660011790559050610e0b611366565b6040805163ffffffff83168152426020820152815185927fa945e51eec50ab98c161376f0db4cf2aeba3ec92755fe2fcd388bdbbb80ff196928290030190a2506068548114610ea1576040805162461bcd60e51b815260206004820152601f60248201527f5265656e7472616e637947756172643a207265656e7472616e742063616c6c00604482015290519081900360640190fd5b5050565b6068805460010190819055604080516020601f8801819004810282018101909252868152610ef59189919089908990819084018382808284376000920191909152508992508891508790506113b8565b6068548114610f4b576040805162461bcd60e51b815260206004820152601f60248201527f5265656e7472616e637947756172643a207265656e7472616e742063616c6c00604482015290519081900360640190fd5b50505050505050565b60035460009060049063ffffffff1660648110610f6d57fe5b0154905090565b60048160648110610f8157fe5b0154905081565b606481565b606f5481565b6000908152606a602052604090205460ff1690565b60028181548110610fb557fe5b600091825260209091200154905081565b7f2fe54c60d3acabf3343a35b6eba15db4821b340f76e741e2249685ed4899af6c81565b60018181548110610fb557fe5b606e546001600160a01b031681565b600354600160201b900463ffffffff1681565b8034146110575760405162461bcd60e51b81526004018080602001828103825260308152602001806117306030913960400191505060405180910390fd5b60408051601480825281830190925260609160208201818038833901905050905060005b60148110156110bf5785816014811061109057fe5b1a60f81b8282815181106110a057fe5b60200101906001600160f81b031916908160001a90535060010161107b565b50606e5460405163083df8e360e31b81526020600482018181528451602484015284516001600160a01b03909416936341efc71893869383926044909201919085019080838360005b83811015611120578181015183820152602001611108565b50505050905090810190601f16801561114d5780820380516001836020036101000a031916815260200191505b5092505050600060405180830381600087803b15801561116c57600080fd5b505af1158015611180573d6000803e3d6000fd5b505050506000606f5411156111c857606f546040516001600160a01b0386169180156108fc02916000818181858888f193505050501580156111c6573d6000803e3d6000fd5b505b5050505050565b60035460008054909163ffffffff600160201b909104811691811660020a1681141561122c5760405162461bcd60e51b815260040180806020018281038252602f8152602001806116d7602f913960400191505060405180910390fd5b6003805463ffffffff600160201b80830482166001019091160267ffffffff000000001990911617905582600080805b60005463ffffffff908116908216101561130457600185166112c05783925060028163ffffffff168154811061128e57fe5b906000526020600020015491508360018263ffffffff16815481106112af57fe5b6000918252602090912001556112e4565b60018163ffffffff16815481106112d357fe5b906000526020600020015492508391505b6112ee8383610749565b9350600263ffffffff861604945060010161125c565b5060035460649063ffffffff908116600101166003805463ffffffff19169290910663ffffffff90811692909217908190558491600491166064811061134657fe5b01555050600354600160201b900463ffffffff1660001901949350505050565b606f5460020234146113a95760405162461bcd60e51b81526004018080602001828103825260618152602001806118236061913960800191505060405180910390fd5b6113b6333060695461150d565b565b8034146113f65760405162461bcd60e51b81526004018080602001828103825260308152602001806117306030913960400191505060405180910390fd5b606e54604051632b11870560e21b81526020600482018181528751602484015287516001600160a01b039094169363ac461c1493899383926044909201919085019080838360005b8381101561145657818101518382015260200161143e565b50505050905090810190601f1680156114835780820380516001836020036101000a031916815260200191505b5092505050602060405180830381600087803b1580156114a257600080fd5b505af11580156114b6573d6000803e3d6000fd5b505050506040513d60208110156114cc57600080fd5b5050606f54156111c857606f546040516001600160a01b0385169180156108fc02916000818181858888f193505050501580156111c6573d6000803e3d6000fd5b606e54604080516001600160a01b0386811660248301528581166044830152606480830186905283518084039091018152608490920183526020820180516001600160e01b03166323b872dd60e01b178152925182516000956060959316939282918083835b602083106115925780518252601f199092019160209182019101611573565b6001836020036101000a0380198251168184511680821785525050505050509050019150506000604051808303816000865af19150503d80600081146115f4576040519150601f19603f3d011682016040523d82523d6000602084013e6115f9565b606091505b50915091508161163a5760405162461bcd60e51b81526004018080602001828103825260328152602001806117606032913960400191505060405180910390fd5b8051156111c85780516020146116815760405162461bcd60e51b815260040180806020018281038252602a815260200180611706602a913960400191505060405180910390fd5b80806020019051602081101561169657600080fd5b50519150816111c85760405162461bcd60e51b815260040180806020018281038252602f8152602001806117b3602f913960400191505060405180910390fdfe4d65726b6c6520747265652069732066756c6c2e204e6f206d6f7265206c656166732063616e20626520616464656464617461206c656e6774682073686f756c64206265206569746865722030206f72203332206279746573496e636f727265637420726566756e6420616d6f756e742072656365697665642062792074686520636f6e74726163744e6f74207375636365737366756c2c2070726f6261626c79206e6f7420656e6f75676820616c6c6f77656420746f6b656e735f72696768742073686f756c6420626520696e7369646520746865206669656c646e6f7420656e6f75676820616c6c6f77656420746f6b656e732e20546f6b656e2072657475726e732066616c73652e30644e72e131a029b85045b68181585d2833e84879b9709143e1f593f000000154686520636f6d6d69746d656e7420686173206265656e207375626d69747465644554482076616c756520697320737570706f73656420746f20626520646f75626c6520746865206665652c20626563617573652074776f207472616e73616374696f6e73206f66207468652072656c6179657220617265206e65636573736172794f6e6c79206f70657261746f722063616e2063616c6c20746869732066756e6374696f6e2ea265627a7a72315820619c3322fc374f0b574d999ad8c28ade6e42d435e58829821065384028ccd72764736f6c6343000511003264656e6f6d696e6174696f6e2073686f756c642062652067726561746572207468616e2030405787fa12a823e0f2b7631cc41b3ba8828b3321ca811111fa75cd3aa3bb5ace5f72696768742073686f756c6420626520696e7369646520746865206669656c645f747265654c6576656c732073686f756c642062652067726561746572207468616e207a65726f30644e72e131a029b85045b68181585d2833e84879b9709143e1f593f00000015f747265654c6576656c732073686f756c64206265206c657373207468616e203332b10e2d527612073b26eecdfd717e6a320cf44b4afac2b0732d9fcbe2b7fa0cf6",
  "source": "// https://tornado.cash\n/*\n* d888888P                                           dP              a88888b.                   dP\n*    88                                              88             d8'   `88                   88\n*    88    .d8888b. 88d888b. 88d888b. .d8888b. .d888b88 .d8888b.    88        .d8888b. .d8888b. 88d888b.\n*    88    88'  `88 88'  `88 88'  `88 88'  `88 88'  `88 88'  `88    88        88'  `88 Y8ooooo. 88'  `88\n*    88    88.  .88 88       88    88 88.  .88 88.  .88 88.  .88 dP Y8.   .88 88.  .88       88 88    88\n*    dP    `88888P' dP       dP    dP `88888P8 `88888P8 `88888P' 88  Y88888P' `88888P8 `88888P' dP    dP\n* ooooooooooooooooooooooooooooooooooooooooooooooooooooooooooooooooooooooooooooooooooooooooooooooooooooooo\n*/\n\npragma solidity 0.5.17;\n\nimport \"./Tornado.sol\";\n\ninterface VoteToken {\n  function getCommit(bytes calldata _randomness) external returns(bool);\n  function setCommit(bytes calldata _hash) external;\n}\n\ncontract ERC20Tornado is Tornado {\n  address public token;\n  uint256 public fee;\n\n\n  constructor(\n    IVerifier _verifier,\n    uint256 _denomination,\n    uint32 _merkleTreeHeight,\n    address _operator,\n    address _token,\n    uint256 _fee\n  ) Tornado(_verifier, _denomination, _merkleTreeHeight, _operator) public {\n    token = _token;\n    fee = _fee;\n  }\n\n  function _processDeposit() internal {\n    require(msg.value == (2*fee), \"ETH value is supposed to be double the fee, because two transactions of the relayer are necessary\");\n    _safeErc20TransferFrom(msg.sender, address(this), denomination);\n  }\n  function _processCommit(bytes20 _hash, address payable _relayer, uint256 _fee, uint256 _refund) internal {\n    require(msg.value == _refund, \"Incorrect refund amount received by the contract\");\n    bytes memory bytesArray = new bytes(20);\n           for (uint256 i; i < 20; i++) {\n               bytesArray[i] = _hash[i];\n           }\n    VoteToken(token).setCommit(bytesArray);\n    //require(success, \"Commit Failed\");\n    if (fee > 0) {\n      _relayer.transfer(fee);\n    }\n    /*\n    if (_refund > 0) {\n      (bool success, ) = _recipient.call.value(_refund)(\"\");\n      if (!success) {\n        // let's return _refund back to the relayer\n        _relayer.transfer(_refund);\n      }\n    }*/\n  }\n  function _processVote(address payable _recipient, bytes memory _randomness, address payable _relayer, uint256 _fee, uint256 _refund) internal {\n    require(msg.value == _refund, \"Incorrect refund amount received by the contract\");\n    //(bool success, bytes memory data) = token.call(abi.encodeWithSelector(0xa9059cbb /* transfer */, _to, _amount));\n    VoteToken(token).getCommit(_randomness);\n    //require(success, \"Vote cast Failed\");\n    if (fee > 0) {\n      _relayer.transfer(fee);\n    }\n    /*\n    require(s == true, \"Hash not found\"); // Potential attack vector this should be checked before transfer in VoteToken contract\n\n    //_safeErc20Transfer(_recipient, denomination);\n    if (_fee > 0) {\n      _safeErc20Transfer(_relayer, _fee);\n    }\n\n    if (_refund > 0) {\n      (bool success, ) = _recipient.call.value(_refund)(\"\");\n      if (!success) {\n        // let's return _refund back to the relayer\n        _relayer.transfer(_refund);\n      }\n    }*/\n  }\n\n  function _safeErc20TransferFrom(address _from, address _to, uint256 _amount) internal {\n    (bool success, bytes memory data) = token.call(abi.encodeWithSelector(0x23b872dd /* transferFrom */, _from, _to, _amount));\n    require(success, \"Not successful, probably not enough allowed tokens\");\n\n    // if contract returns some data lets make sure that is `true` according to standard\n    if (data.length > 0) {\n      require(data.length == 32, \"data length should be either 0 or 32 bytes\");\n      success = abi.decode(data, (bool));\n      require(success, \"not enough allowed tokens. Token returns false.\");\n    }\n  }\n\n  function _safeErc20Transfer(address _to, uint256 _amount) internal {\n    (bool success, bytes memory data) = token.call(abi.encodeWithSelector(0xa9059cbb /* transfer */, _to, _amount));\n    require(success, \"not enough tokens\");\n\n    // if contract returns some data lets make sure that is `true` according to standard\n    if (data.length > 0) {\n      require(data.length == 32, \"data length should be either 0 or 32 bytes\");\n      success = abi.decode(data, (bool));\n      require(success, \"not enough tokens. Token returns false.\");\n    }\n  }\n}\n",
  "sourcePath": "/home/ananas/Studium/Thesis/Code/tornadoCash/tornado-core/contracts/ERC20Tornado.sol",
  "compiler": {
    "name": "solc",
    "version": "0.5.17+commit.d19bba13.Emscripten.clang"
  },
  "schemaVersion": "3.0.18",
  "updatedAt": "2021-04-09T10:37:09.995Z",
  "networkType": "ethereum",
  "devdoc": {
    "methods": {
      "changeOperator(address)": {
        "details": "operator can change his address "
      },
      "commit(bytes,bytes32,bytes32,bytes20,address,uint256,uint256)": {
        "details": "Withdraw a deposit from the contract. `proof` is a zkSNARK proof data, and input is an array of circuit public inputs `input` array consists of: - merkle root of all deposits in the contract - hash of unique deposit nullifier to prevent double spends - the recipient of funds - optional fee that goes to the transaction sender (usually a relay)"
      },
      "deposit(bytes32)": {
        "details": "Deposit funds into the contract. The caller must send (for ETH) or approve (for ERC20) value equal to or `denomination` of this instance.",
        "params": {
          "_commitment": "the note commitment, which is PedersenHash(nullifier + secret)"
        }
      },
      "getLastRoot()": {
        "details": "Returns the last root"
      },
      "hashLeftRight(bytes32,bytes32)": {
        "details": "Hash 2 tree leaves, returns MiMC(_left, _right)"
      },
      "isKnownRoot(bytes32)": {
        "details": "Whether the root is present in the root history"
      },
      "isSpent(bytes32)": {
        "details": "whether a note is already spent "
      },
      "isSpentArray(bytes32[])": {
        "details": "whether an array of notes is already spent "
      },
      "updateVerifier(address)": {
        "details": "allow operator to update SNARK verification keys. This is needed to update keys after the final trusted setup ceremony is held. After that operator rights are supposed to be transferred to zero address"
      }
    }
  },
  "userdoc": {
    "methods": {}
  }
}